:020000040800F2
:10000000100B002089010008C1100008590D0008DC
:10001000AD0F0008AF020008B31500080000000093
:100020000000000000000000000000004D15000866
:10003000B1020008000000004B1500084F15000831
:10004000A3010008A3010008A3010008A301000800
:10005000A3010008A3010008A3010008A3010008F0
:10006000A3010008A3010008A3010008A3010008E0
:10007000A3010008A3010008A3010008A3010008D0
:10008000A3010008A3010008A3010008A3010008C0
:10009000A3010008A3010008A3010008A3010008B0
:1000A000A3010008A3010008A3010008A3010008A0
:1000B000A3010008A3010008A3010008A301000890
:1000C000A3010008A3010008A3010008A301000880
:1000D000A3010008A3010008A3010008A301000870
:1000E000A3010008A3010008A301000800F002F822
:1000F00000F03AF80AA090E8000C82448344AAF188
:100100000107DA4501D100F02FF8AFF2090EBAE885
:100110000F0013F0010F18BFFB1A43F0010318473B
:10012000C84A0000E84A0000103A24BF78C878C1E5
:10013000FAD8520724BF30C830C144BF04680C60ED
:10014000704700000023002400250026103A28BF35
:1001500078C1FBD8520728BF30C148BF0B60704739
:100160001FB51FBD10B510BD00F06CF81146FFF7AC
:10017000F7FF02F06FF800F08AF803B4FFF7F2FF20
:1001800003BC00F08DF8000009488047094800478B
:10019000FEE7FEE7FEE7FEE7FEE7FEE7FEE7FEE737
:1001A000FEE7FEE704480549054A064B7047000094
:1001B000B1150008ED00000810050020100B00200C
:1001C00010070020100700204FF0000200B5134672
:1001D00094469646203922BFA0E80C50A0E80C5067
:1001E000B1F12001BFF4F7AF090728BFA0E80C5018
:1001F00048BF0CC05DF804EB890028BF40F8042B11
:1002000008BF704748BF20F8022B11F0804F18BF7D
:1002100000F8012B704770477047704710B500F029
:1002200009F8006810BD10B5044600F003F804603A
:1002300010BD000000487047B0040020004870471F
:10024000B00400207546FFF7F9FFAE460500694689
:10025000534620F00700854618B020B5FFF7A2FFEF
:10026000BDE820404FF000064FF000074FF00008B7
:100270004FF0000B21F00701AC46ACE8C009ACE838
:10028000C009ACE8C009ACE8C0098D46704710B59C
:100290000446AFF300802046BDE81040FFF76DBF75
:1002A00001491820ABBEFEE7260002007047FEE7BA
:1002B000704772B6FEE7000010B590F82030026873
:1002C000012B07D0022B05D0416A41F48021416205
:1002D000012010BDD2F8000240F00100C2F8000277
:1002E000087D00F01F0301209840D2F81C328343A0
:1002F000C2F81C32CB69B3B9D2F80C328343C2F8CE
:100300000C328C894B6864F31F434C6902EBC404C4
:10031000C4F840320C890B6864F31F434C6902EB4C
:10032000C404C4F84432CB69012B16D1D2F80C3284
:100330000343C2F80C320C884B6864F31F434C69CA
:1003400002EBC404C4F840320C89CB6864F31F4349
:100350004C6902EBC404C4F844328B69002BD2F818
:1003600004320FD053EA0003C2F804320B69002BA9
:10037000D2F8143208D00343C2F81432096A0129B2
:1003800004D008E08343EFE78343F5E7D2F81C127B
:100390000143C2F81C12D2F8000220F00100C2F89A
:1003A0000002002010BD70B5040003D094F82000B6
:1003B00010B104E0012070BD204600F081F82068F3
:1003C000016841F00101016000F0D6F905460526FB
:1003D00004E000F0D1F9401B0A2811D820684068D9
:1003E000C007F6D02068016821F00201016000F02A
:1003F000C3F905460BE000F0BFF9401B0A2806D9F7
:10040000606A40F40030606284F82060D2E72068BF
:1004100040688007EFD4207E0128206801683DD025
:1004200021F080010160607E01282068016838D0D9
:1004300021F040010160A07E01282068016833D0CE
:1004400021F020010160E07E0128206801682ED0A3
:1004500041F010010160207F01282068016829D047
:1004600021F008010160607F01282068016824D024
:1004700021F004010160D4E902010843D4E9041227
:10048000114308436168491E08432168C861002080
:100490006062012084F82000002070BD41F08001DE
:1004A000C0E741F04001C5E741F02001CAE721F073
:1004B0001001CFE741F00801D4E741F00401D9E78A
:1004C00010B586B00021009101910291039100685E
:1004D0001349884222D11348C16941F00071C161BA
:1004E000C16901F000710491816941F004018161E9
:1004F00080690D4C00F0040004904FF400600090FF
:100500006946204600F03EF8A014009002200190B9
:10051000032003906946204600F034F806B010BD71
:1005200000640040001002400008014070B504461D
:1005300090F82000012804D0606A40F40020606236
:1005400018E0022084F820002068016821F00101F1
:10055000016000F011F905460EE000BF00F00CF953
:10056000401B0A2808D9606A40F400306062052008
:1005700084F82000012070BD20684068C007EDD1DC
:10058000606270BD2DE9F84FDFF8B8910024A9F141
:10059000040B23460F2709F1040AABF1040EC9E04E
:1005A0000125A5402A40AA427DD1674ED1F804C05A
:1005B000ACEB0608B44532D014DCBCF1030F3AD0E2
:1005C00009DCBCF1000F2AD0BCF1010F1CD0BCF13A
:1005D000020F31D11DE0BCF1110F17D0BCF1120F89
:1005E0002AD119E0B8F5881F19D006DCB8F5803F8C
:1005F00015D0B8F5801F1FD111E0B8F5001F0ED03F
:10060000B8F5041F18D10AE0CB6815E0CB681B1DB4
:1006100012E0CB6808330FE0CB680C330CE08B683A
:100620002BB1012B4FF0080303D0456104E00423F4
:1006300002E0056100E00023FF2A01D8064601E040
:1006400000F104064FEA840501D9A5F12005D6F88A
:10065000008007FA05FC28EA0C0803FA05F548EAC9
:100660000508C6F800804D68ED0062D5374DAE69CB
:1006700046F00106AE61AD6924F0030605F0010500
:100680000095334D06EB050CDCF80850A607360F35
:1006900007FA06F825EA0805DFF8B880404503D1D7
:1006A0004FF0000817E044E0DFF8AC80404502D18D
:1006B0004FF001080FE0DFF8A480404502D14FF071
:1006C000020808E0DFF89880404502D14FF00308A7
:1006D00001E04FF0040808FA06F848EA0508CCF8EB
:1006E00008804D68D9F80060ED024D4601D51643EB
:1006F00000E096432E604D68DAF80060AD02554682
:1007000001D5164300E096432E604D68DBF800608B
:10071000AD035D4601D5164300E096432E604D685B
:10072000DEF80060ED03754601D5164300E0964300
:100730002E60641C0D682A46E5407FF431AFBDE8A9
:10074000F88F000008040140000011100010024062
:100750000000014000080140000C01400010014071
:10076000001401408068084000D0012070470AB1A1
:10077000016170470904FBE7014880687047000089
:100780006800002002488168027811448160704747
:1007900068000020074810B5016841F010010160B1
:1007A000032000F067F80F2000F006F800F024F8AE
:1007B000002010BD0020024070B50D4D04464FF4DE
:1007C0007A712878B1FBF0F00A490968B1FBF0F0C2
:1007D00000F0AEFA48B9102C07D200222146501E74
:1007E00000F028F800206C6070BD012070BD000092
:1007F00068000020740000200C4808B5816941F0B1
:1008000001018161816901F001010091C16941F03B
:100810008051C161C06900F0805000900448416877
:1008200021F0E06141F00071416008BD001002401C
:1008300000000140F0B40E4B1B680C46C3F30223CA
:10084000C3F10705042D00D90425191D072901D27C
:10085000002300E0DB1E012606FA05F1491E2140B7
:1008600099409E40761E16403143F0BC00F0B6BE63
:100870000CED00E0064900F0070208684FF6FF03A0
:10088000184040EA0220034A104308607047000005
:100890000CED00E00000FA052DE9F0470F460500D9
:1008A00061D0434E306800F00700B84209D230688A
:1008B00020F0070038433060306800F00700B8428D
:1008C00051D128683B4C810712D5400703D5606899
:1008D00040F4E06060602878000703D5606840F469
:1008E000605060606068A96820F0F00008436060B4
:1008F0002878C00728D06868012810D0216802280D
:1009000010D0890700292EDA616821F00301014324
:100910006160FFF731FF804641F288390DE02168C0
:100920008903EFE78901EDE7FFF726FFA0EB080158
:10093000494502D90320BDE8F0876068696800F086
:100940000C00B0EB810FEFD1306800F00700B84227
:100950000BD9306820F0070038433060306800F071
:100960000700B84201D00120E5E72878400705D507
:100970006068E96820F4E060084360602878000758
:1009800006D56068296920F4605040EAC1006060C3
:1009900000F018F86168084AC1F30311515CC840BF
:1009A0000649086006480068FFF706FF0020C2E716
:1009B00000200240001002408E4900087400002010
:1009C0006C0000200E4A51680E4801F00C03042B05
:1009D00011D0082B0FD10C48C1F38343C903C05C6D
:1009E0000AD55168084AC1F34041921E515C054A3C
:1009F0005043B0FBF1F07047044948437047000092
:100A00000010024000127A007E49000800093D00F3
:100A10002DE9F84F040070D02078C04DC00749D0B0
:100A20006868C0F38100012807D06868C0F38100BE
:100A3000022809D16868C00306D52868800339D523
:100A400060680028E7D035E06068B0F5803F0BD0E3
:100A500010B1B0F5A02F11D0286820F480302860A4
:100A6000286820F4802002E0286840F48030286064
:100A7000606890B1FFF780FE06460AE0286840F4FF
:100A800080202860F0E700BFFFF776FE801B642817
:100A900073D828688003F7D50CE0FFF76DFE064693
:100AA00005E000BFFFF768FE801B6428F0D82868C7
:100AB0008003F7D420789A4E80074FF001094FF059
:100AC000000839D5686810F00C0F07D06868C0F3CB
:100AD0008100022809D16868C00306D4286880070D
:100AE00014D52069012808D110E02069B0B1C6F8FA
:100AF0000090FFF741FE074605E00AE1FFF73CFEE4
:100B0000C01B0228C4D828688007F7D52868616907
:100B100020F0F80040EAC10028600DE0C6F800802F
:100B2000FFF72AFE074604E0FFF726FEC01B022857
:100B300023D828688007F7D4207800072CD5794877
:100B4000A169D9B1C0F80090FFF716FE074604E08E
:100B5000FFF712FEC01B02280FD8686A8007F7D57E
:100B600071484FF4FA510068B0FBF1F0009000BFFB
:100B70000098411E0091FAD20EE080E0C0F800809B
:100B8000FFF7FAFD074604E0FFF7F6FDC01B022859
:100B900075D8686A8007F7D42078400760D5E8697F
:100BA0000027C00008D4E86940F08050E861E86997
:100BB000012700F0805000905C480168C90513D4FB
:100BC0000168834641F480710160FFF7D5FD8246DC
:100BD00006E000BFFFF7D0FDA0EB0A0064284ED866
:100BE000DBF80000C005F5D5E06801280AD008B19F
:100BF000052813D0286A20F001002862286A20F016
:100C0000040002E0286A40F001002862E06841F236
:100C1000883B98B1FFF7B0FD82460BE0286A40F0B0
:100C200004002862EEE700BFFFF7A6FDA0EB0A0173
:100C300059455AD8286A8007F6D50CE0FFF79CFD85
:100C4000824605E0FFF798FDA0EB0A0159454CD814
:100C5000286A8007F6D41FB1E86920F08050E86167
:100C6000E06988B36968C1F38101022944D0022890
:100C7000C6F8608004D0FFF77FFD044638E034E01A
:100C8000FFF77AFD074604E0FFF776FDC01B022858
:100C90002BD828688001F7D4206AB0F5803F05D1B1
:100CA0006868A16820F4003008436860D4E908014E
:100CB0000843696821F4741108436860C6F86090BD
:100CC000FFF75AFD044606E025E000BFFFF754FD9C
:100CD000001B022809D828688001F7D51BE000BF57
:100CE000FFF74AFD001B022802D90320BDE8F88F58
:100CF00028688001F4D40EE00128F7D06868226AE1
:100D000000F48031914204D1616A00F4701088428D
:100D100001D00120EAE70020E8E7000000100240CF
:100D200000004242800442427400002000700040F3
:100D300010B5401EB0F1807F01D3012010BD4FF0EF
:100D4000E02460610F21601700F048FC0020A061E2
:100D500007202061002010BDFEE7000000B58BB029
:100D600000200121CDE90601089105900490009032
:100D700001900290039069460248FFF79DFA0BB07C
:100D800000BD0000780400202DE9F0470746DDE9AA
:100D9000089A1D4690460E463B2000F05EF8044639
:100DA0003C2000F05AF840EA042038803D2000F052
:100DB00054F804463E2000F050F840EA0420308009
:100DC0003F2000F04AF80446402000F046F840EA90
:100DD0000420A8F80000432000F03FF80446442017
:100DE00000F03BF840EA04202880452000F035F868
:100DF0000446462000F031F840EA0420A9F800003B
:100E0000472000F02AF80446482000F026F840EA7F
:100E10000420AAF80000BDE8F087752000F01DB896
:100E200010B500F0C5F801216B2000F035F8002165
:100E30006C2000F031F80921192000F02DF806216E
:100E40001A2000F029F818211B2000F025F818219D
:100E5000BDE810401C2000F01FB810B5044600F09B
:100E600004F9D02000F0EBF800F0B6F8204600F0CE
:100E7000E6F800F0B1F800F0F8F8D12000F0DFF863
:100E800000F0AAF800F0B7F80446012000F0CCF812
:100E900000F0FAF8204610BD70B50D46044600F08B
:100EA000E4F8D02000F0CBF800F096F8204600F0EF
:100EB000C6F800F091F8284600F0C1F800F08CF870
:100EC000BDE8704000F0E0B80F4810B50D49016072
:100ED0003021416000214FF480328160C0E903126B
:100EE00052014261017641768176C1760177417780
:100EF000FFF759FA002803D0BDE81040FFF7D9B931
:100F000010BD00000064004078040020F0B585B0FA
:100F1000002424480094019402940394816941F0D0
:100F200010018161816901F010010491816941F032
:100F300020018161816901F020010491816941F002
:100F400008018161816901F008010491816941F022
:100F5000040181618069144F00F004004FF4406582
:100F60000490012229463846FFF701FCAE1000220A
:100F700031463846FFF7FBFB0320CDE902400095E0
:100F80001125694601953846FFF7FCFA0220CDE9A4
:100F90000240CDE9006569463846FFF7F3FA05B02F
:100FA000F0BD000000100240000C0140FEE7000010
:100FB00001224FF440610148FFF7D9BB000C01400A
:100FC00010B54FF400610348FFF7CCFB002800D0B8
:100FD000012010BD000C014010B5012000F068F8A0
:100FE000012000F05DF8FFF7EBFF0446002000F061
:100FF00057F8204610BD70B50025012000F058F8C4
:1010000000248026012000F04BF8FFF7D9FF10B133
:1010100026FA04F00543002000F042F8641CE4B214
:10102000082CEFD3284670BD10B500F041F8012020
:1010300000F036F8BDE81040002000F031B870B57F
:1010400000240646802525FA04F0304000D0012017
:1010500000F02EF8012000F023F8002000F020F826
:10106000641CE4B2082CEED370BD10B5012000F072
:101070001FF8012000F014F8002000F019F8BDE876
:101080001040002000F00CB810B5002000F010F85F
:10109000012000F005F8BDE81040012000F008B87C
:1010A000C2B24FF480610148FFF761BB000C014000
:1010B000C2B24FF400610148FFF759BB000C014078
:1010C000FEE7000010B50021074C0A46002004EBA3
:1010D000C1131A54401CC0B28028FAD3491CC9B2AB
:1010E0000829F3D310BD000078000020F0B50B44B0
:1010F00024E0044685181DE07F2C19D8002917DB51
:101100003F2915DCCE1701EB56764FEAE60C0D4F62
:1011100026F0070607EBCC172744A1EB060E97F83D
:1011200000C0012606FA0EF62CEA060C87F800C06D
:10113000641C24B2A542DFDC491C09B28B42D8DC16
:10114000F0BD00007800002010B500204FF47A7246
:101150000021491C9142FCD3401C9042F8D3FFF778
:10116000D5FE012000F0B8F9BDE81040012000F0E4
:10117000BBB970B500240646802525FA04F030403E
:1011800000D0012000F0B0F9012000F0A5F9002006
:1011900000F0A2F9641CE4B2082CEED3012000F0A8
:1011A0009BF9BDE87040002000F096B910B5012011
:1011B00000F09AF9012000F08FF9002000F094F976
:1011C000BDE81040002000F087B910B5002000F005
:1011D0008BF9012000F080F9BDE81040012000F0FB
:1011E00083B910B5FFF7B0FFAE2000F085F9D52028
:1011F00000F082F9802000F07FF9A82000F07CF94F
:101200003F2000F079F9D32000F076F9002000F0BB
:1012100073F9402000F070F9A12000F06DF9C820AA
:1012200000F06AF9DA2000F067F9122000F064F9A2
:10123000812000F061F9CF2000F05EF9D92000F0A4
:101240005BF9F12000F058F9DB2000F055F930206F
:1012500000F052F9A42000F04FF9A62000F04CF95C
:101260008D2000F049F9142000F046F9AF2000F07D
:1012700043F9FFF727FFBDE8104000F019B9024617
:10128000012000E05043491EFCD2704710B50C46C7
:1012900040F0B00000F030F9102040EA141000F0E7
:1012A0002BF904F00F00BDE8104000F025B9000054
:1012B00008B5082B0DD0062B0AD10A4B02EB4202CF
:1012C00003EB4202C03A00920823062200F06EF8B7
:1012D00008BD054B03EB0212A2F500721023009229
:1012E0000822F3E742470008524100082DE9FF5F5A
:1012F00082B014461D46DDE911B6074600221346AA
:1013000020462946DDF8408002F096F9334605D89C
:101310002B2238460399FFF7CBFF06E02D223846F3
:101320000399FFF7C5FF85F000452046294601F0E7
:10133000F1FF824602F032F822462B4602F00CFA08
:1013400005460C4659460A20FFF799FF814602F0F0
:1013500025F82A46234602F071F801F0A5FC01F0B9
:10136000D9FFB0FBF9F1044601EB0A02B81900B24B
:1013700043460096039900F077F808F1010000FB5E
:10138000067000B233462E220399FFF791FF08F151
:10139000020000FB067000B25B46224600960399ED
:1013A00000F062F806B0BDE8F09F00002DE9F04FB4
:1013B0001F4616460D4682460024FFF797FE7F1E05
:1013C000F81707EB50700121DFF898B001EBE00748
:1013D00043E000203DE000BF0AEB00037F2B36D83E
:1013E000E91705EB5171CA1021F00701691A002DA8
:1013F00003DA521E083112B209B202EB0409B9F144
:10140000070F0ED8099A04FB06F802440BEBC91E1D
:1014100018F802201EF803C08A404CEA020C0EF8AD
:1014200003C009F10102072A11D80BEBC91202EB24
:101430000308099A04FB06FC024498F880301CF863
:101440000220C1F10801CA40134388F88030401CD3
:10145000C0B2B042C0D3641CE4B2A742B9DCBDE85C
:10146000F08F0000780000202DE9F04700241D4691
:1014700090468A4681460A27089E14E0291B0A20C6
:10148000491EFFF7FCFEB8FBF0F0B0FBF7F107FBDD
:10149000110204FB069000B2334651463032FFF78A
:1014A00007FF641CE4B2AC42E8D3BDE8F08700005B
:1014B00070B5084D002400212046FFF7E7FE05EB3C
:1014C000C410802100F029F8641CE4B2082CF2D387
:1014D00070BD000078000020C2B24FF48071014856
:1014E000FFF745B9000C0140C2B24FF4007101484A
:1014F000FFF73DB9000C014010B50446FFF756FE5A
:101500007820FFF736FE0020FFF733FE2046FFF776
:1015100030FEBDE81040FFF758BE70B50D460646D8
:10152000FFF744FE7820FFF724FE4020FFF721FE5E
:10153000002404E0305DFFF71CFE641CE4B2AC4202
:10154000F8D3BDE87040FFF740BE70477047FFF723
:1015500019B930B58FB028216846FEF735FE142141
:101560000AA8FEF731FE01210804CDE9001000248D
:10157000029402250491CDE907504FF4E010099040
:101580006846FFF745FA08B172B6FEE70F20CDE9CD
:101590000A054FF48060CDE90C4002210AA80E94A0
:1015A000FFF77AF9002801D072B6FEE70FB030BD20
:1015B0007047FEE7490050EAC12018BF04204A0DD9
:1015C00018BF40F0010040F2FF72B2EB515F08BF5C
:1015D00040F00200012808BF052070470907090EE6
:1015E000002804DB00F1E02080F80014704700F0D0
:1015F0000F0000F1E02080F8141D70472DE9F74F2F
:10160000144694B00021C4E902111599079121F004
:101610000045C9498D4206DC1599C4E9000117B09F
:101620000020BDE8F08FC549DFF814A3A9423CDDD6
:101630000799C44E0029C44FC44A1599534619DD71
:1016400002F07CF9554506D0C14AC24B02F076F94A
:10165000C4E900010AE04FF0D352BE4B02F06EF92C
:1016600032463B4602F06AF9C4E9000117B0012096
:10167000BDE8F08F01F00AFC554506D0B44AB54BE1
:1016800001F004FCC4E900010AE04FF0D352B14B71
:1016900001F0FCFB32463B4601F0F8FBC4E90001D7
:1016A00017B04FF0FF30BDE8F08FAB49A942159954
:1016B00078DB21F0004183468846A84AA84B01F018
:1016C000BDFE0022A74B01F0E1FB01F0F3FD099004
:1016D00001F04DFE06460F469C4A534601F0AEFE11
:1016E00043465A4602F038F880468A46984A994B53
:1016F0003046394601F0A2FE2A0D01250B924246E2
:10170000534602F029F8032DC4E9000139D00B98A3
:10171000C1F30A51401A05EB45111139814230DA03
:101720009148C346784400EB0510CDF80CA00C900E
:10173000D0E900233046394601F080FE02460B46D0
:10174000049106905846039902F0F8F880468A46BC
:1017500002460B465846039902F0F0F8049B069A9D
:1017600002F0ECF883460C9803913946D0E9022345
:10177000304601F063FE5A46039B02F0DFF86D1C11
:10178000BDE707980028A2BF099817B0BDE8F08F01
:10179000616881F000416160099817B04042BDE87E
:1017A000F08FFFE784461598C1F31301C0F30A5088
:1017B000A0F2F5304FEA601800F01F06C6F12000D5
:1017C000139000200690079041F4801E05206D467E
:1017D00076B1664A08EB00017A4452F8213002EBF8
:1017E0008101B3404A68139922FA01F1194305E0D7
:1017F0005F4908EB0002794451F82210A1FB0E2743
:10180000A1FB0C131A449A4234BF0123002303EBBB
:10181000070A05EB8003D3E901B70F448F4234BFB9
:101820000121002193448B4411B1934502D903E077
:10183000934501D2012100E00021C3E901B75144E1
:1018400045F82010011EA0F10100C1DC0298059F9F
:1018500000F10050800F12900298DDE903568000DD
:1018600001F085FD834628460D9101F097FD6FF04C
:101870001D0202F028FCCDE90E01304601F08EFD7C
:101880006FF03D0202F01FFC80468A46384601F0A8
:1018900085FD6FF05D0202F016FC07464246534696
:1018A000119101F0F3FADDE90E2301F0EFFA5A4647
:1018B0000D9B01F0EBFA00250E465A4628460D9B7B
:1018C00002F03CF8DDE90E2302F038F842465346B8
:1018D00002F034F83A46119B01F03EFFDFF898A081
:1018E000244A534601F0AAFD07468846234A244B62
:1018F0003146284601F0A2FD3A46434601F0C6FAB9
:10190000074688464FF0A84253463146284601F024
:1019100095FD3A46434601F0B9FA159A12F0004F88
:1019200004D0129A81F0004152421292C4E900019F
:10193000129817B0BDE8F08FFB21E93F7CD9024037
:10194000FB21F93F7370032E8A19A33B000040541A
:101950003163621A61B4D03DFB21394183C8C96D3E
:10196000305FE43F0000E03FD03300004C33000024
:101970002E330000182D4454FB21F93D3326A611C7
:10198000460B113C2DE9FF4D21F0004807460C465F
:10199000B8F1795F08DA01F08DFC002801BF002062
:1019A000324904B0BDE8F08D3A4623461046194648
:1019B00001F044FD054602462D480E460B46062121
:1019C000784400F05DF82A46334601F037FDDDE942
:1019D000022382468B463846214601F02FFD0446FD
:1019E0000F4652465B462846314601F027FD224607
:1019F0003B4601F0A3FF07468A464FF0FF322846D8
:101A0000314602F060FB1B4A90450ADA3A465346DB
:101A100001F094FF04B00022BDE8F04D134B01F03B
:101A20009BBE154A4245A8BFA8F500154FF000041B
:101A3000B8BF124D22462B4601F080FF064688466D
:101A400022462B460020094901F078FF04460D4646
:101A50003A4653463046414601F070FF04B02246F4
:101A60002B46BDE8F04D01F077BE00000000F03FCE
:101A7000FC3000003333D33F0000E93F0000D23F89
:101A80002DE9F0414F1E00EBC7010446D1E90001EA
:101A900015461E4637F006020DD02A46334601F0A1
:101AA000CDFC7F1E04EBC703D3E9002301F0EEF960
:101AB00037F00602F1D1022F25D0042F13D0062FC4
:101AC00018BFBDE8F0812A46334601F0B7FCD4E9DF
:101AD0000A2301F0DBF92A46334601F0AFFCD4E9D2
:101AE000082301F0D3F92A46334601F0A7FCD4E9D4
:101AF000062301F0CBF92A46334601F09FFCD4E9D6
:101B0000042301F0C3F92A46334601F097FCD4E9D7
:101B1000022301F0BBF92A46334601F08FFCD4E9D9
:101B20000023BDE8F04101F0B1B900002DE9FF4DFF
:101B3000054621F0004084B00C46B0F1795F0BDA25
:101B40002846FFF737FD042808BF00F07FF8284635
:101B500008B02146BDE8F08D2A460B46104601F03C
:101B60006DFC06460F462A46234601F067FC804678
:101B700026488A4632463B4605217844FFF780FFD7
:101B800083461098029160B3214A224B4046514649
:101B900001F054FCCDE900015A4640465146029BF3
:101BA00001F04CFC82468846DDE906014FF0FF3229
:101BB00002F089FA5246434601F0C0FE32463B46E7
:101BC00001F03CFCDDE9062301F0B8FEDDE900236D
:101BD00001F0B4FE08B02A462346BDE8F04D01F0FE
:101BE000BBBD0B465A463046394601F027FC084A31
:101BF000084B01F04BF94246534601F01FFC08B078
:101C00002A462346BDE8F04D01F040B942300000BD
:101C1000495555555555C5BF002213461046014933
:101C200001F0F0B90000F03F012202F04CBA01F0DF
:101C30002DB9002213461046114601F0E3B940F2D7
:101C4000013200204FF0E04102F03DBA024A00208C
:101C5000110702F038BA000001FDFFFF2DE9F84F2F
:101C600004460D4621F0004000917349814211DC89
:101C70007249884201DC06D12CB120462946BDE8D4
:101C8000F84FFFF7D1BF6E48002DCCBF6D496E49AC
:101C9000BDE8F88F6D49814211DD6D498142D8BFA1
:101CA0004FF0FF366DDD20462946FFF783FC042800
:101CB00008BFFFF7CBFF20462946BDE8F88F6549EE
:101CC000654F25F00045814233DD6449814219DDCD
:101CD000002632464FF080432046294601F0D6F8D0
:101CE00080468A4601222046294602F0ECF900226D
:101CF0003B4601F023FE4246534601F083F9044679
:101D00000D463EE001260022BA463B4620462946C3
:101D100001F0BCF880460F46002253462046294673
:101D200001F00CFE42463B4601F06CF904460D46BC
:101D300027E04B4981421BDDDFF828A10226002263
:101D400053462046294601F079FB00223B4601F02C
:101D50009DF880460F46002253462046294601F052
:101D6000EDFD42463B4601F04DF904460D4608E0C4
:101D7000032622462B4600203B4901F043F9044646
:101D80000D4622462B461046194601F057FB8B465E
:101D9000824602460B4601F051FB07460246334895
:101DA00088460B4606217844FFF76AFE52465B469A
:101DB00001F044FB82462E488B463A4643460521B5
:101DC0007844FFF75DFE3A46434601F037FB024692
:101DD0000B46002E504659460CDA01F057F82246C1
:101DE0002B4601F02BFB01B022462B46BDE8F04FFD
:101DF00001F0B2BC01F04AF822462B4601F01EFB6E
:101E00001C4A7A4402EBC603D3E9002301F096FD95
:101E100022462B4601F092FD174A7A4402EBC60394
:101E2000D3E9002301F098FC009A002AB8BF81F0A2
:101E30000041BDE8F88F0000000010440000F07F72
:101E4000182D4454FB21F93FFB21F9BF0000DC3F72
:101E50000000203E0000F33F0000F03F0000E63F9E
:101E6000008003400000F83F0000F0BF5E2C00003F
:101E70001C2C0000BA2B0000822B000000B5244B64
:101E800021F0004287B09A42DCBF0022134629DDD0
:101E9000204B9A4208D140B94FF00100FEF7C3F938
:101EA000FFF7C7FE07B000BD03DBFFF7BDFE07B0BD
:101EB00000BD02AAFFF7A2FB10F0030104BF0DF161
:101EC000080C9CE80F000DD0012001290ED002293A
:101ED00014D00DF1080C00909CE80F00FFF726FECF
:101EE00007B000BDFFF74EFD07B000BD0DF1080CB7
:101EF00000909CE80F00FFF719FE05E00DF1080CBB
:101F00009CE80F00FFF73EFD07B081F0004100BDE7
:101F1000FB21E93F0000F07F2DE9F04FC84C074658
:101F20008BB0C6480E466062FEF77AFF04F11601D8
:101F3000881ECDE90001831E021F811F0838FEF7AD
:101F400023FFB4F9160001F012FA81468A46306880
:101F500001F0DEFDFFF792FF04908846386801F03B
:101F6000D7FDFFF78BFF83460D46306801F0D0FDAB
:101F700000F0E4FE5A462B4601F060FA4346049A0C
:101F800001F040F84A46534601F058FA81468A4625
:101F9000B4F9140001F00CFFA16C01F0EDFF01F0A9
:101FA000B7FD05468846306801F0B2FDFFF766FFD1
:101FB00083460191386801F0ABFD00F0BFFECDE92A
:101FC0000510306801F0A4FD00F0B8FEDDE905322F
:101FD00001F034FA5A46019B01F014F82A464346B0
:101FE00001F02CFA05468846B4F9120001F0E0FE33
:101FF000616C01F0C1FF01F08BFD2A46434600F001
:1020000045FF4A46534600F041FF00F00DFFE061F6
:10201000B4F9160001F0ABF905468846386801F0BE
:1020200077FD00F08BFE2A46434601F007FA824610
:102030008846B4F9140001F0BBFEA16C01F09CFFCE
:1020400001F066FD05468946386801F061FDFFF73D
:1020500015FF2A464B4601F0F1F95246434601F07E
:102060006DFC00F0E1FE05462062606AE169804691
:1020700001F0B6FE396801F077FDA06229464046BE
:1020800001F0AEFE316801F06FFD04F14C05E06235
:10209000286801F03DFDDFF8ACA1DFF8ACB1524695
:1020A0005B4600F0F3FE00F0BFFE4FF00009286031
:1020B000C5E901998046E86801F02AFD52465B4671
:1020C00000F0E4FE00F0B0FE8246E860404601F019
:1020D0001FFD4FF0333B80465A465C4B019100F0A8
:1020E000D5FE02460B464046019900F08BFF00F0FA
:1020F0009BFEDFF85C81C8E900095046C8F80890EB
:1021000001F006FD82465A46504B019100F0BEFE9A
:1021100002460B465046019900F074FF00F084FE21
:10212000C8F80C00A06901F0F3FC8246B4F9100075
:102130008B46079001F03CFE0590B4F90E0001F0CB
:1021400037FE216C01F018FF059901F06FFD01F0D9
:10215000DFFCFFF783FD52465B4601F06FF900F0AC
:1021600063FE2063079801F002F900224FF08043DC
:1021700000F0AEF8CDE90001B4F90E0001F018FE50
:10218000216C01F0F9FE01F0C3FC00224FF0804306
:1021900000F09EF8DDE9002300F078FE00F01EFE5E
:1021A00003910690B4F90C0001F002FEE16B01F01E
:1021B000E3FE01F0ADFC039B069A00F023FFFFF75E
:1021C0004DFD81F0004152465B4601F037F900F0C9
:1021D0002BFE6063A16A206B8A4601F0CDFED8F821
:1021E000001001F0FDFD514601F0BEFC3860E16ACF
:1021F000606B0F4601F0C0FED8F80C1001F0F0FD46
:10220000394601F0B1FC30604FF07E542046D8F8DA
:10221000001001F0B1FE296801F0E2FDC5E90009F6
:10222000C5F808902046D8F80C1001F0A5FEE96822
:1022300001F0D6FDE8600BB0BDE8F08F6F12833A75
:102240000C0000207B14AE47E17A643F3333D33F68
:10225000A00400200EB5FEF79DFAFFF77AF9FEF70D
:1022600055FEFEF731FEFEF7BCFFFEF777FD164880
:10227000FEF75CF9FEF7D4FDFEF7CFFD134C082501
:1022800003262070022711490831081FFFF744FE7A
:10229000606801F03DFC00970B46CDE90165024600
:1022A00000210846FFF722F8A06801F031FC0097F2
:1022B000CDE9016502460B4610210020FFF716F814
:1022C000FFF7F6F8DFE700007804002000000020A8
:1022D0002DE9F04D1D460C4698B0174621F00041FF
:1022E00023F00043002814BF4FF0010C4FF0000C06
:1022F0000CEB440CFE4A0CEB02064FEA620C6645FE
:102300002BD33E0018BF012606EB45061644F94ABA
:10231000964222D3F84A53EA070C02D0944205D1E0
:1023200048B918B000201146BDE8F08D002808BF5C
:102330004FF0000C01D04FF0010C0CEB440212F5F1
:10234000001F0AD8002F14BF4FF0010C4FF0000CF3
:102350000CEB450212F5001F07D918B03A462B4680
:102360002146BDE8F04DFFF762BC0022DFF88CA3E8
:10237000002CB8BF534526DADFF884C36345A8BFF5
:10238000022220DADFF870C39C451CDCDFF874C33E
:102390000CEB235CBCF1140F08DDCCF1340627FAFA
:1023A00006FC0CFA06F6BE420DD108E05FB9CCF18E
:1023B000140623FA06FC0CFA06F69E4203D10CF032
:1023C0000102C2F1020251EA000C19D1002D17DA04
:1023D000002C18BF022A01D0012A07D00220FDF7E5
:1023E00022FF18B0BDE8F04DFFF716BC0220FDF744
:1023F0001AFFFFF711FC18B081F00041BDE8F08D25
:10240000B7F1000C6CD1534525D104F1804212F58F
:10241000801201BF00280020B74918B008BFBDE8EE
:10242000F08DB548884207DC002DA1BF60462946E3
:1024300018B0BDE8F08D07E0281E05DA80F00041F5
:1024400018B06046BDE8F08DAF497944D1E900018C
:1024500018B0BDE8F08DDFF8A0C2634525D1002D8E
:102460001FDA19B1514512D1D8B909E0002840F05E
:10247000EC82A24A214618B062F31E01BDE8F08D3D
:102480000020214618B060F31E01BDE8F08D08DA87
:1024900018B02346BDE8F04D02460020614600F02A
:1024A000B1BD18B02146BDE8F08D514518DAB5F13F
:1024B000804F0DD0A5F1005CBCF1FF5C10D1B4F1F0
:1024C000000C0DDB18B06146BDE8F04D00F086BC95
:1024D000234618B00246BDE8F04D194600F0AEBFE5
:1024E000060024F0004C3BD1D9B1514533D1002C2A
:1024F00006DD002DA1BF0020514618B0BDE8F08DCB
:10250000002C01DD002D1BDB002C13DA002D11DB6C
:10251000012A4FF0000014BF78497C4918B0BDE88B
:10252000F08D022A18BF002C0AD0012A08D1002CF5
:1025300006DA0AE0002CB8BF002D11DA012A04D017
:10254000002018B00146BDE8F08D18B000204FF013
:102550000041BDE8F08DA1F14050B0F17F601AD08C
:10256000012000EBE47050EA020421D0624C521EBC
:102570004FF0000B104304BF4FF0000B644C654854
:1025800083427CDD644A654893421FDD884217DB45
:10259000002D25DB37E0002C00DA4AB1022A0CBFFF
:1025A00001204FF0FF3018B0BDE8F04D00F0DFBE65
:1025B0000120FDF738FE18B0BDE8F04DFFF739BB3C
:1025C0004D4A8A4202DC002D0ADC1CE0814202DA1C
:1025D000002D18DA04E0484B994220DD002D12DD71
:1025E0000220FDF720FEFFF72AFB05460E460022DB
:1025F00053465846214600F021FF18B066F31E01ED
:102600002846BDE8F08D0220FDF70DFEFFF71EFB0A
:102610000A46214618B062F31E01BDE8F08D002283
:102620003046614601F08AF980460E466FF001029D
:1026300001F049FD4FF05532394B01F08DF842461B
:10264000334600F0FBFE0022364B01F085F882464F
:102650004246334604911046194600F0EFFE5246BA
:10266000049B00F0EBFE8A4600904FF0C0422E4BD8
:102670004046314600F0E2FE2C4A2B4B00E027E0BA
:10268000CDE906015146009800F0D8FE824601913E
:10269000274A284B4046314600F0D0FE5246019B67
:1026A00001F04CF982460B4602460591DDE9060130
:1026B00000F0ECFBDDE9062300268846304601F0F9
:1026C0003DF95246059B01F047F8024600F07EB9FD
:1026D0000020B1F5801F07DA35223046614601F04F
:1026E000F2FC06466FF0340000EB215024E00000BD
:1026F000FFFF1F00FFFF0F000000F03F0000F07F12
:102700000000404301FCFFFFA22600000000F0FF94
:102710000000F0BF0000E0410000F043FFFFEF3F8A
:102720005555D53F0000E03F4715F73FFE822B652A
:1027300044DF5DF80BAE543EA0F2FF300190C1F3D0
:10274000130040F07F6141F040510291FE49884200
:10275000D8BF002004DDFD498142C8BF012001DD52
:102760000D9008E000200D900198401C0190029807
:10277000A0F5801002900299F54878440B910D99CC
:1027800000EBC100D0E900230F9330460A920B9969
:1027900001F0D4F8CDE90601DDE90A2130460F9BAE
:1027A00000F074FB02460B460020EA4900F02AFCC8
:1027B000059102460B460090DDE9060100F03EFE61
:1027C0001490E5488A464FF0000878440299006862
:1027D00012904FF0005040EA61010D980F9B01EB01
:1027E000804000F5002109910A9A129801F0A6F89C
:1027F00032460B9B00F0B0FF4246534600F01EFEEF
:102800000646029140465146099B129A00F016FE78
:10281000DDE9062300F0A0FF3246029B01F08EF8AE
:10282000059B009A00F00AFE0091149A049053460A
:102830001046194600F002FE06460246C7480B46FF
:10284000029106217844FFF71BF9CDE90510029BA0
:1028500032461046194600F0F1FDDDE9053200F080
:10286000EDFD05910646534640461946149A00F080
:102870000DFB009B049A00F0E1FD3246059B00F041
:1028800005FBCDE90510424653461046194600F0B7
:10289000D5FD0022B24B02910A9000F0F7FADDE973
:1028A000053200F0F3FA0E464246AD4B404601F0C9
:1028B00045F8029B0A9A01F041F8DDE9053200F083
:1028C0004BFF424602910A9033461046514600F0B3
:1028D000B5FDCDE906015346149A02990A9800F015
:1028E000ADFD8A460290334642460099049800F0B6
:1028F000A5FD5346029A00F0C9FA82460B460246ED
:102900000591DDE9060100F0C1FADDE906230020AA
:102910008846064601F012F85246059B00F01CFF5F
:10292000824609914FF060428E4B3046414600F09E
:1029300085FD049006918C4A8A4B5046099900F017
:102940007DFD82460291894A894B3046414600F01E
:1029500075FD5246029B00F099FA864B7B440D9A16
:1029600003EBC203D3E9002300F090FA0E90079125
:10297000019800F0FCFC0591DDE9061382460E9AF1
:10298000049800F083FA7C4A7A440D9B02EBC3035F
:10299000D3E900230093029200F078FA5246059B97
:1029A00000F074FA0026884652463046059B00F037
:1029B000C5FF009B029A00F0C1FF069B049A00F03D
:1029C000BDFF079B0E9A00F0C7FE024600200B4693
:1029D00002903846294600F031FD824601912B468F
:1029E00038461946029A00F0A9FF3246434600F0E5
:1029F00025FD5246019B00F049FA07468A463246B9
:102A000043462946029800F019FD05460E463A460F
:102A1000534600F03BFA594A8846914221DBA8EB25
:102A2000020353EA000210D12A46334600F086FF23
:102A3000CDE90401524A534B3846514600F026FA7C
:102A4000DDE9042300F0F8FD21D20220FDF7EBFBC5
:102A5000FFF7F5F80A46214618B062F31E01BDE8FB
:102A6000F08D494B28F000429A4210D3474A08EBB8
:102A7000020353EA00027FF4C6AD2A46334600F053
:102A80005DFF3A46534600F0D7FD7FF6BCAD00220D
:102A9000019228F000403E493E4A01EB205182421B
:102AA00023DA481C4FF4801121FA00F040443A4ADE
:102AB000C0F30A517A44394BA1F2FF31CB4020EAEE
:102AC0000303C0F3130040F48010C1F11401C840A7
:102AD00012680190B8F1000FBCBF40420190284637
:102AE000314600F02BFF05460E462A46334638464F
:102AF000514600F0CBF94FF000084246284B4046C3
:102B0000059100F09BFCCDE90601264A264B404684
:102B1000059900F093FC009102902A463346404606
:102B2000059900F00BFF3A46534600F015FE1F4A88
:102B30001F4B00F083FC009B029A00F0A7F90746A8
:102B4000884602460B4635E08E9803007AB60B00A5
:102B5000BA2200000000F03F2223000020220000E3
:102B60000000084009C7EE3FFD033ADCF5015B14A5
:102B7000E02F3EBEF8200000BC2000000000904086
:102B8000FE822B654715973C00CC904000346F3F88
:102B900001FCFFFF0000E03F38200000FFFF0F00B6
:102BA000432EE63F396CA80C615C20BEEF39FAFE7B
:102BB000422EE63FDDE9060100F068F9DDE9062373
:102BC00005460E4600F0BAFE3A46434600F0C4FD04
:102BD0000F462A46334600901046194600F02EFC58
:102BE000824602462E4888460B4605217844FEF769
:102BF00047FF5246434600F021FC2A46334600F088
:102C0000ABFD80468A463B4628463146009A00F096
:102C100015FC3B46009A00F039F90691009000221D
:102C20004FF080434046514600F088FE0F460C901E
:102C3000424653462846314600F000FC3B460C9A7B
:102C400000F0E0F9069B009A00F078FE2A46334631
:102C500000F074FE0022134B00F07EFD0546019843
:102C60000E4601EB00510815002810DC28463146BD
:102C7000019A01F028FAFEF79DFC042808BFFEF730
:102C8000E5FF28463146019A01F01DFA05460B463C
:102C900018B02A4658462146BDE8F04D00F0CEBB9C
:102CA000A81E00000000F03F2DE9F04D07460E463B
:102CB00000F0F8FC04460D463A46334600F04CFD61
:102CC000DFF86CA0DFF86CB01B4B0746884616F0A7
:102CD000004F4FF000020AD000F074FB0AD9002226
:102CE0005B463846414600F0A7FC1BD212E000F0DC
:102CF00069FB08D2002253462046294600F01EFEFA
:102D000004460D460EE000225B463846414600F080
:102D100093FC07D8002253462046294600F0B6F817
:102D200004460D463146204665F31E01BDE8F08D90
:102D30000000F03F0000E03F0000E0BF00B5254B81
:102D400021F0004287B09A4203DC00221346009231
:102D50002BE0214B9A4208D140B94FF00100FDF71A
:102D600062FAFEF766FF07B000BD03DBFEF75CFF0B
:102D700007B000BD02AAFEF741FC10F003014FF0BE
:102D800001000DD0012914D002291AD00DF1080C30
:102D90009CE80F00FEF7F6FD07B081F0004100BD92
:102DA0000DF1080C00909CE80F00FEF7BFFE07B085
:102DB00000BD0DF1080C9CE80F00FEF7E3FD07B025
:102DC00000BD0DF1080C00909CE80F00FEF7AEFE70
:102DD000E2E70000FB21E93F0000F07F2DE9F04130
:102DE00006460F4600F0C4FC041E0D4618BF012025
:102DF000284320F00040C0F17F6000F1E040C00FA8
:102E00000ED0301C18BF0120384320F00040C0F124
:102E10007F6000F1E040C00F04BF0120FDF703FA1E
:102E200020462946BDE8F08121F00042A2F160521F
:102E3000B2F5801F01F0004328BFD2F17F6C0BD99F
:102E40005FEA001C43EAC20242EB507018BF7047B1
:102E500028BF20F001007047B2F5801FBCBF1846A4
:102E600070474FEA410C1CF5001F02D2084601F0E2
:102E70007EB870B500F08CFB00000089FFF7F6BF4C
:102E80004FF00040A0F580007047000010B591EAB7
:102E9000030F48BF83F0004300F15885841A71EB9B
:102EA000030C05D2121943EB0C03001B61EB0C0160
:102EB000DFF824E14FEA1154A4EB135C1EEA430F40
:102EC00018BF9EEA445F73D023EA0E03DCF1200EA4
:102ED00021EA045143F4801332D322FA0CFE10EBA2
:102EE0000E0023FA0CFE41EB0E01CCF1200E03FA8A
:102EF0000EFE10EB0E0051F10001B1F5801FCCF178
:102F0000200E32D201EB045112FA0EF2BDE810404D
:102F100058BF7047401C38BF5FEA420218BF704775
:102F2000002814BF20F0010041F100014FEA4103E5
:102F300013F5001F38BF7047A1F1C04100F076BB08
:102F4000012A43EB0302ACF1200CDCF11F0E32BF6F
:102F50004FF0000E23FA0CF310EB030041EB045189
:102F6000B4EB115FD0D0A1EB045101F580114908F9
:102F70005FEA300001EB04510ED350F1000038BF7E
:102F800012FA0EFE08D1BDE81040C9E7401C38BF58
:102F90005FEA4202CAD1C3E7BDE810404FEA4103ED
:102FA00013F5001F38BF7047A1F1C04100F03EBBD0
:102FB0009EEA445F08D011EA5E0FBDE8104004BFEE
:102FC00001F0004100207047BDE8104070B500F0EE
:102FD000DFFA00BF64FBBE3E0000E0FF02494FF095
:102FE000000001F03EB800BF0000F87F491058BF54
:102FF000C1F140415B1058BFC3F140438B42EFF336
:10300000008070472DE9C04130B4DFF8A0C23CEA2F
:10301000111418BF3CEA131400F0EC8081EA030598
:103020001CEA111444EAD57418BF1CEA131500F009
:10303000C780A4EB05044FF0004545EAC12145EAED
:10304000C32341EA505143EA525304F17F74994239
:1030500004F500344FEAC0204FEAC22208BF904274
:1030600000F09C804FEA13650FF24016765D4FEA40
:10307000134506FB05F7C7F1807706FB07F74FEA14
:10308000D737A7FB03687642C8F58038A7FB06CE82
:1030900038BFA8F1010807FB08E64FF0000EA6FBB9
:1030A000028CE6FB03CEDCF1000CCEF1004E38BF03
:1030B000AEF1010EA6FB0C584FF000074FF00005D3
:1030C000E6FB0E87A1FB08C6A0FB07CE16EB0E069B
:1030D00045F10005E1FB076515F1E04E7EBFA4F563
:1030E00080345FEA46066D4116F1800745F1000520
:1030F0004FEA17274FEA066647EA0567A6F1DE465C
:10310000B6F1805F4FEA15251FD9384624F0010C2F
:1031100005EBC471BCF1FE6F01EB0C1102D8F0BCE1
:10312000BDE8008124425CBF01F5801E9EEAC47F99
:1031300002D4F0BCBDE80081244238D4F0BCA1F137
:10314000C041BDE8004100F071BA4FEAD22242EA24
:1031500043524FEAD323A7FB02864FEAD02040EA2E
:10316000415007FB03661EEA0E0F4FEAD12105FB13
:10317000026658BFA6EB0056B6EB00564FEA520E59
:103180004EEAC37E18EB0E0E56EB530EBDD518EB70
:1031900002085E417F1C55F10005B6E74FF480152B
:1031A0004FF000074FF000064FF00008ADE7F0BC0D
:1031B0004FF0000001F1C04101F00041BDE8008185
:1031C00011EA0C1F0CEA131500D00CE013EA0C1FD7
:1031D00000F025804FF00000F0BC81EA030101F00F
:1031E0000041BDE80081F0BCBDE8004181EA030177
:1031F00000F01CBAF0BCBDE8004170B500F0C8F9A1
:10320000097EFC3E00F007B881EA03014FF00000A0
:1032100001F00041704781EA030100F007BAF0BCF9
:10322000BDE800414FF0000021497047FFFDFBF968
:10323000F7F5F4F2F0EEEDEBE9E8E6E4E3E1E0DEE9
:10324000DDDBDAD8D7D5D4D3D1D0CFCDCCCBCAC85B
:10325000C7C6C5C4C2C1C0BFBEBDBCBBBAB9B8B782
:10326000B6B5B4B3B2B1B0AFAEADACABAAA9A8A875
:10327000A7A6A5A4A3A3A2A1A09F9F9E9D9C9C9B43
:103280009A999998979796959594939392919190EE
:103290008F8F8E8E8D8C8C8B8B8A8989888887877F
:1032A0008685858484838382828181800000FF07F4
:1032B0000000F87F4FEA41034FEA5353A3F58063C0
:1032C000D3F11E03C8BFD3F1210C0CDD4FF0004237
:1032D00042EAC12242EA505232FA03FC8CEAE17C13
:1032E000ACEBE1707047102BC4BF0020704703F5B2
:1032F000787CBCF1FF3F04D06FF0004282EA2100ED
:10330000704770B500F044F949922480002070475E
:10331000F2E700004FEA1153A3F58063D3F11E03D7
:10332000A8BFD3F1200C08DB4FF0004242EAC122D3
:1033300052EA505232FA03F0704709420BD4102B74
:10334000C4BF0020704703F5787CBCF1FF3F05D077
:103350004FF0FF3070474FF00000704770B500F03D
:1033600017F900BF4992248000207047F0E710F061
:10337000004248BF4042B0FA80F310FA03F10AD08D
:10338000C3F11D0303F580634FEA415002EB035282
:1033900002EBD12170474FF000007047B0FA80F384
:1033A00010FA03F10AD0C3F11D0303F580634FEA5D
:1033B00041504FEA035202EBD12170474FF0000019
:1033C0007047000051EA030C17D41CF5801F58BF4A
:1033D000BCF5801F00F10680994218BF704708BFF6
:1033E0009042704707D711F5801F58BF13F5801F13
:1033F00019D499427047894270471CF5801F08D53F
:10340000BCF5801FF7D58B4218BF704708BF8242BA
:1034100070474FF4001C1CEB410F38BF1CEB430FEF
:1034200001D28B42704770B500F0B2F89224490087
:103430004FF000514FF08053FFF7D8BDDFF848C17F
:1034400070B51CEA111E1EBF1CEA13159EEA0C0F74
:1034500095EA0C0F00F06F8081EA030423EA4C1315
:103460004EEAD47E21EA4C1141F4801143F48013DA
:10347000AE44A1FB024CA0FB0365AEF17F7E361982
:1034800055EB0C05A1FB034C4CF10003A0FB021C07
:1034900016EB0C06654153F10003094218BF46F0D4
:1034A000010613F4007F0BD14FEA03314FEA0530D8
:1034B000340341EA155140EA16506FF003020AE066
:1034C0004FEAC3214FEAC520F40241EA555140EAD0
:1034D00056506FF0020202EB2E4201EB025585EAD4
:1034E000CE710AD05FEA440C18BF24F0004450F1BA
:1034F000000041F1000120EAD47040F2FE7C6245F8
:1035000000D270BDA84214BF4FF080444FF0404439
:10351000002E08BF0024BEF1806FA8BFA1F1C041FA
:10352000BDE8704080F282804FF0000001F1C041A0
:1035300001F0004170479EEA0C0F0CEA131518BF0A
:1035400095EA0C0F06D04FF0000081EA030E0EF052
:10355000004170BD00F01CF88900013E00F007B882
:1035600000F009B84FEA430C5FEA5C5C08D081EADE
:10357000030100F05BB84FEA410C5FEA5C5CF6D1F6
:103580004FF00000014970470000FF070000F87F7E
:103590000EF1020E2EF0030E5EF8046B364205D4D7
:1035A000012A43EB030515F5001F12D8012841EB52
:1035B000010C1CF5001F0CD80ED14FEAD17C15F57B
:1035C000001F0CEB4C0C0CF1020C08BF4CEBD37C35
:1035D00004E04FF0080C01E04FEAD37C0CEB4C0503
:1035E00026FA05F606F00706B6F1040C06D20EEB35
:1035F000860CBDE870404CF0010C6047DFE80CF031
:10360000090B02024FF000414FF00000A1F500212C
:1036100070BD19461046012851EB010418BFD4F5BE
:10362000001484BF002001F0004170BD0808A0F51F
:1036300000114FEA3101704753EA010C17D41CF511
:10364000801F58BFBCF5801F00F106808B4218BF59
:10365000704708BF8242704707D713F5801F58BFD5
:1036600011F5801F19D48B4270479B4270471CF59F
:10367000801F08D5BCF5801FF7D5994218BF704749
:1036800008BF904270474FF4001C1CEB430F38BF3B
:103690001CEB410F01D2994270470FB40CBC03BC24
:1036A000FFF7C1BE5FEA410C5FEA5C5CACF580638A
:1036B0005B1C39D4D3F1340240F34580B2F12003CE
:1036C00014DA4FF0010C0CFA02FCACF101030340D8
:1036D000B3EB5C0220EA030008BF10EA0C0F98BFAE
:1036E000704710EB0C0041F1000170470AD0C3F1A4
:1036F000200201FA02FC012821FA03F101FA03F188
:103700004CF100004FF0010C0CFA03FCACF101038A
:10371000B0F1004F21EA030108BF11EA0C0F4FF08E
:10372000000088BF61447047B3F1FF3F28BF50EAF3
:10373000C12C01F000414FF0000084BF41F07C51EA
:1037400041F470017047B3F5806FB8BF704770B532
:10375000FFF71EFF40DBB6BE91EA030F10B581F004
:1037600000413FF59BAB83F0004300F0EFB8000051
:103770002DE9F04101F5801CBCF5001FC0F2C380AB
:103780004FEA115C21EA0C510CF1FD0C41F480115F
:103790005FEA5C0C0CF5C07C01D3400049413DA4BC
:1037A000890241EA905187028E0E0A0CA45D04FB47
:1037B00004F602FB06F6C6F14046A4FB0662F60DCF
:1037C00046EA422606FB06F4A4FB01235242C3F15B
:1037D000404338BF5B1EA6FB02420024E6FB0324E5
:1037E000D20B42EA4446A6FB0623A1FB02E2A3FB5E
:1037F00007E4A4184FF0000252F10002E3FB01427B
:103800006442C2F1404E38BFAEF1010EA6FB042364
:103810004FF00002E6FB0E32A2FB03464FF000041D
:10382000B61954F10004E2FB0264A1FB06E6A4FB16
:1038300007E816EB08064FF0000858F10008E4FB13
:1038400001687642C8F1405838BFA8F10108A2FBD0
:1038500006E4A3FB08E52D194FF0000454F1000421
:10386000E2FB0854A1FB05E6A7FB04E818EB0608F9
:103870004FF0000656F10006E1FB048618F1200522
:1038800056F10006A809A8F11B08B10908F03F0885
:10389000B8F10A0F40EA86601CD901EB0C51BDE873
:1038A000F08100BFFCF5EEE8E2DDD8D3CFCBC7C393
:1038B000C0BDB9B6B4B1AEACA9A7A5A3A19F9D9B4D
:1038C0009A9896959392908F8D8C8B898887868510
:1038D00084838281A0FB006800FB01F208EB4208B0
:1038E000B8EB872807D5341858EB0104D5D5401C10
:1038F00051F10001D1E7341A78EB0104CDD4401E18
:1039000071F10001C9E75FEA4C0C5FEA9C5C0DD1E4
:1039100005D34FF0000001F00041BDE8F081BDE8A3
:10392000F04170B5FFF734FE6DDBFFBEBDE8F0413E
:103930004FF00000004970470000F87F10B591EA91
:10394000030F48BF83F000433FF5A8AA841A71EB28
:10395000030C07D212198CF0004C43EB0C03001B34
:1039600061EB0C01DFF8A4E14FEA1154A4EB135C06
:103970001EEA430F18BF9EEA445F00F0B08023EABE
:103980006E03524221EA0451C3EB6E0338BF5B1E43
:10399000DCF1200E25D322FA0CFE10EB0E0043FAC8
:1039A0000CFE41EB0E01CCF1200E03FA0EFE10EBE3
:1039B0000E0051F10001CCF1200E29D412FA0EF2C2
:1039C00001EB0451BDE8104058BF7047401C1CBFBC
:1039D000B2F1004F704700280CBF491C20F00100D5
:1039E000704712EB020E43EB030218BF4FF0010EBB
:1039F0004EEA4202ACF1200CDCF11E0E54D943FA1F
:103A00000CFE10EB0E0051F1FF31CCF11E0ED5D59E
:103A10000EF1010E12FA0EFE404141EB010101EBE5
:103A2000445C5FEA5C5C10D910EBDE7001EB045182
:103A300038BFBEF1004FBDE8104018BF70470028E6
:103A40000CBF491C20F00100704730D24FEAD42C43
:103A500011F5001124F400641BD0B1FA81F20B3A85
:103A6000A41AA41ED2F12003914030FA03F31943A3
:103A7000904001EBCC71002C01EB0451BDE81040EB
:103A8000A8BF704701F1C0414FF0000001F00041B4
:103A90007047B0FA80F310FA03F100D110BDE41AB8
:103AA000173C4805C90AE4E701EB045110BD491071
:103AB00001EB0451BDE810404FEA300002E04FF046
:103AC000000170474A0008BF0042F8D0B2F5001F5D
:103AD00028BF704701F000414FF0000070479EEA98
:103AE000445F07D011EA5E0FBDE8104004BF00211B
:103AF00000207047BDE8104070B5FFF749FD00BFDA
:103B000040DFF63E83F00041104670470000E0FFC2
:103B100043004FEAD30C4FEA3C0C43401FBF400721
:103B20000CF1605113F0FE4F70471CF0006F03D191
:103B300000200CF0004170470CF0004343EA507045
:103B400010B540EACC0000F0CCF900BF00000092B4
:103B50004FEA0001FFF76ABD4FF000414FF000004F
:103B6000A1F500217047000090EA010F48BF81F0E5
:103B7000004100F10882421A3CBF801A89184FEABE
:103B8000D0524FF07F4C1CEA410FA2EBD15318BF2B
:103B90009CEA026F00F03B804FF0004C4CEA0020A2
:103BA0004CEA012121FA03FC10EB0C0C1ED202F1AD
:103BB000FF325FEA1C2040EBC25038BF70471CF058
:103BC0007F0F4FEA400C18BFBCF17F4F38BF7047E2
:103BD000C3F12003994008BF20F00100BCF17F4FE2
:103BE00038BF7047A0F1C04000F0C1B94FEA3C00B7
:103BF000000A40EBC25028BF1CF0FF0F4FEA400CF8
:103C0000E6D018BFBCF17F4F38BF7047EAE79CEAA7
:103C1000026F05D010EA5C0F08BF00F0004070474B
:103C200010B500F05EF900BF64FBBE3E4FF47F0CA0
:103C30001CEAD0121EBF1CEAD11392EA0C0F93EAC1
:103C40000C0F00F0858090EA010F48BF42F48072AB
:103C500040F4000C41F400002CF07F4120F07F4044
:103C600000B58142A2EB03020FF2081CACEB504EF0
:103C7000C0F100009EF800E04FEA4E0E00FB0EFC83
:103C800038BF49004FEA2C1C02F5FA020CFB0EF378
:103C90004FEACE1E4FEA112C4FEAC1210EEB635EB4
:103CA00042EB22420EFB0CFC4FEA1C5300FB0311BB
:103CB0004FEA112C4FEA01310EFB0CFC4FEADC4CB1
:103CC00000FB0C11C14228BF09184CEB03335DF80F
:103CD00004EB10EB410143EBC250B2F57C0F38BF4F
:103CE000704729D512F0F00F1CBF00F1C04000F062
:103CF00000407047008182838485868788898B8C09
:103D00008D8E8F919293959697999A9C9D9FA0A244
:103D1000A3A5A7A8AAACAEB0B2B3B5B7B9BCBEC094
:103D2000C2C5C7C9CCCED1D4D7D9DCDFE2E6E9EC35
:103D3000F0F3F7FAFE0000004FEA400C0CF1807C33
:103D4000BCF17E4F28BF7047B0F1C04000F00FB902
:103D500090EA010F0CEAD11348BF42F48072624529
:103D600038BF634507D213F47F0F16D080EA0100F5
:103D700000F00040704710B500F0B3F8097EFC3E3B
:103D800000F005B880EA010000F00040704780EACA
:103D9000010000F0004000F0EAB812F47F0F04BF09
:103DA0000248704780EA010000F0E1B80000C07FDF
:103DB00010F0004148BF4042B0FA80F310FA03F21D
:103DC000C3F19D030BD051EAC35101EB12205306FE
:103DD00038BF704700F1010008BF20F001007047B4
:103DE0004FF47F0C1CEAD0121EBF1CEAD11392EADA
:103DF0000C0F93EA0C0F00F0478090EA010F48BFC8
:103E000042F480724FF0004C4CEA00204CEA012151
:103E100002EB0302A0FB0113A2F50002002918BF68
:103E200043F001035B0028BF4FEA330342EB224219
:103E30005FEA132C4CEBC2502EBFBCEB436FB2F5C4
:103E40007C0F70474FEA036CBCF1004F08BF20F0B5
:103E50000100B2F57C0F38BF70470BD582F0FF022E
:103E600012F5803FC8BF704700F1C040D8BF00F0D6
:103E70000040704700F5000C5FEA4C0C48BF7047EB
:103E8000B0F1C04000F073B890EA010F0CEAD11312
:103E900048BF42F48072624538BF634504D280EA6D
:103EA000010000F00040704710B500F01AF800BFA4
:103EB0008900013E00F007B800F009B85FEA410C44
:103EC0005FEA1C6C08D080EA010000F050B85FEA9D
:103ED000400C5FEA1C6CF6D14FF00040A0F580006A
:103EE00070470EF1020E2EF0030E5EF8044B2442D2
:103EF00004D44FEA4102B2F17F4F11D84FEA400398
:103F0000B3F17F4F0CD80ED14FEAD07CB2F17F4F86
:103F10000CEB4C0C0CF1020C08BF4CEBD17C04E018
:103F20004FF0080C01E04FEAD17C0CEB4C0324FA73
:103F300003F404F00704B4F1040C06D20EEB840C75
:103F4000BDE810404CF0010C6047DFE80CF00708BA
:103F500002024FF00040A0F5800010BD084642006C
:103F600018BFD2F1807288BF00F0004010BDFF2161
:103F700041EAD050C005704790EA010F48BF81F078
:103F800000413FF5F8AD421A04D882F00042A0EBA0
:103F9000020011444FEAD0524FF07F4C1CEA410F0F
:103FA000A2EBD15318BF9CEA026F4AD04FF0004CED
:103FB0004CEA00204CEA012121FA03FCB0EB0C0C86
:103FC0000FD412F0FE0F36D05FEA4C001DD5001260
:103FD00040EBC25038BF70471CF03F0F18BF70470E
:103FE0000BE0A2F101025FEA1C2040EBC25038BF97
:103FF00070471CF07F0F18BF7047C3F12003994032
:1040000014BF401E20F00100704780084FEA1223C1
:1040100008BF7047B0FA80FCA2EB0C02CCF1280C70
:1040200060FA0CF093EA122F04BF00EBC250704705
:104030004FEAC3707047130A5FEADC1008BF70478D
:10404000F6E79CEA026F04D010EA5C0F08BF00207C
:10405000704710B5FFF745FF40DFF63E81F00040A6
:1040600070470CF00F03092B08BF082000F059809F
:104070000A2B0BD0082B18BF704708BF1CF0400F4D
:104080000AD04FF000004FF0000170471CF0400FC5
:1040900018BF4FF0004070471CF0100F08D020F000
:1040A000704300F07F4242EAD3014FEA4370704709
:1040B00000F0604021F07F4242EA000201F07F40C0
:1040C00040EA727070474FF0FF0C4CF4E06C1CEA51
:1040D00011531CBF9CEA030C9445C2BFDA4201EBAA
:1040E00002517047002B0DD0BCF1000F0FD0002AF9
:1040F00001F00041A4BF41F0E04141F07F614FF089
:104100000000704701F000414FF00000704750EA96
:1041100001334FF09B0C18BF4CF0806C7EF45EAF07
:1041200070471CF4801F11D01CF4E02F03D06FEAFD
:10413000CC31490070474FF04050EFF3008222F03D
:10414000704242EA000282F3008870474FF000009C
:1041500070470000000000000000000000000000A8
:104160000000000000F800000000000000333000F4
:10417000000000160E00160E0000000000000000F7
:10418000000040C07840C0784000043F04043F0471
:104190000400007088FC08300000001820FF211E79
:1041A0000000F008F000E018000000211C031E21B0
:1041B0001E0000F00888700000001E21232419272B
:1041C0002110000000160E0000000000000000009A
:1041D0000000000000E018040200000000071820A2
:1041E000400000020418E000000000402018070012
:1041F0000000404080F0804040000202010F0102B8
:104200000200000000F0000000000101011F010198
:104210000100000000000000000000B0700000007D
:104220000000000000000000000000010101010189
:10423000010100000000000000000030300000001C
:1042400000000000000080601804006018060100F3
:10425000000000E010080810E000000F10202010FF
:104260000F00001010F8000000000020203F202068
:1042700000000070080808887000003028242221FF
:1042800030000030088888483000001820202011B5
:104290000E000000C02010F8000000070424243F96
:1042A000240000F80888880808000019212020113F
:1042B0000E0000E0108888180000000F1120201167
:1042C0000E0000380808C83808000000003F000051
:1042D00000000070880808887000001C222121223C
:1042E0001C0000E010080810E0000000312222113C
:1042F0000F00000000C0C0000000000000303000CF
:104300000000000000C0C0000000000080B070008D
:104310000000000080402010080000010204081086
:104320002000404040404040400004040404040495
:104330000400000810204080000000201008040243
:104340000100007048080808F00000000030360145
:104350000000C030C828E810E00007182724231404
:104360000B000000C038E0000000203C23020227C0
:10437000382008F8888888700000203F202020110D
:104380000E00C03008080808380007182020201048
:10439000080008F808080810E000203F202020103E
:1043A0000F0008F88888E8081000203F202023200C
:1043B000180008F88888E8081000203F2000030053
:1043C0000000C03008080838000007182020221E0E
:1043D000020008F808000008F808203F2101012128
:1043E0003F20000808F8080800000020203F202097
:1043F000000000000808F8080800C08080807F00E6
:10440000000008F888C028180800203F200126383E
:10441000200008F8080000000000203F2020202095
:10442000300008F8F800F8F80800203F003F003F8F
:10443000200008F830C00008F808203F20000718C6
:104440003F00E01008080810E0000F1020202010A6
:104450000F0008F808080808F000203F21010101BA
:104460000000E01008080810E0000F18242438505D
:104470004F0008F8888888887000203F2000030CCF
:1044800030200070880808083800003820212122D8
:104490001C00180808F8080818000000203F200039
:1044A000000008F808000008F808001F202020205D
:1044B0001F000878880000C83808000007380E017F
:1044C0000000F80800F80008F800033C0700073C6B
:1044D0000300081868808068180820302C03032C1B
:1044E00030200838C800C83808000000203F2000ED
:1044F000000010080808C8380800203826212020AD
:104500001800000000FE020202000000007F404090
:104510004000000C30C00000000000000001063820
:10452000C00000020202FE000000004040407F0088
:104530000000002010080408102000000000000007
:10454000000000000000000000008080808080806B
:10455000808000020408000000000000000000004D
:1045600000000000808080800000001924222222A8
:104570003F2008F8008080000000003F112020113B
:104580000E000000008080800000000E112020201E
:104590001100000000808088F800000E112020101B
:1045A0003F200000808080800000001F2222222205
:1045B0001300008080F0888888180020203F202089
:1045C00000000000808080808000006B94949493B1
:1045D000600008F8008080800000203F210000205B
:1045E0003F2000809898000000000020203F2020FD
:1045F0000000000000809898000000C08080807F4C
:10460000000008F8000080808000203F24022D3048
:104610002000000808F8000000000020203F2020B3
:1046200000008080808080808000203F20003F202C
:10463000003F008080008080000000203F2100209B
:104640003F200000808080800000001F202020206C
:104650001F00808000808000000080FFA1202011CA
:104660000E000000008080808000000E112020A03D
:10467000FF80808080008080800020203F212000FB
:1046800001000000808080808000003324242424E6
:104690001900008080E0808000000000001F2020C2
:1046A00000008080000000808000001F202020107B
:1046B0003F20808080000080808000010E3008064E
:1046C000010080800080008080800F300C030C305F
:1046D0000F0000808000808080000020312E0E318D
:1046E0002000808080000080808080818E7018068D
:1046F000010000808080808080000021302C2221F9
:10470000300000000000807C020200000000003F3A
:10471000404000000000FF00000000000000FF001B
:1047200000000002027C800000000040403F0000CA
:104730000000008040408000008000000000000178
:1047400001000000000000000000002F0000000039
:104750000700070000147F147F1400242A7F2A1208
:1047600000231308646200364955225000000007F8
:10477000000000001C224100000041221C00001427
:10478000083E08140008083E0808000000A0600069
:1047900000080808080800006060000000201008F9
:1047A0000402003E5149453E0000427F4000004265
:1047B00061514946002141454B31001814127F10C8
:1047C000002745454539003C4A49493000017109F7
:1047D000050300364949493600064949291E0000AB
:1047E0003636000000005636000000081422410052
:1047F0000014141414140000412214080002015182
:104800000906003E4955592E007C1211127C007F8A
:1048100049494936003E41414122007F4141221C25
:10482000007F49494941007F09090901003E41498A
:10483000497A007F0808087F0000417F410000207E
:1048400040413F01007F08142241007F404040402A
:10485000007F020C027F007F0408107F003E414170
:10486000413E007F09090906003E4151215E007F5B
:10487000091929460046494949310001017F0101D2
:10488000003F4040403F001F2040201F003F403875
:10489000403F0063140814630007087008070061B4
:1048A0005149454300007F414100000204081020A7
:1048B000000041417F00000402010204004040402A
:1048C0004040000001020400002054545478007F4E
:1048D0004844443800384444442000384444487F25
:1048E00000385454541800087E0901020018A4A48A
:1048F000A47C007F080404780000447D4000004050
:1049000080847D00007F102844000000417F40002B
:10491000007C04180478007C0804047800384444BF
:10492000443800FC242424180018242418FC007C9B
:104930000804040800485454542000043F44402014
:10494000003C4040207C001C2040201C003C4030AB
:10495000403C004428102844001CA0A0A07C004437
:1049600064544C440000087F41000000007F0000B8
:104970000000417F0800000804081008010202033B
:104980000405060708090A0B0C0D0E0F1010000095
:1049900000000000000001020304060708090000EF
:1049A0004FBB610567ACDD3F182D4454FB21E93F47
:1049B0009BF681D20B73EF3F182D4454FB21F93F36
:1049C000E2652F227F2B7A3C075C143326A6813CBC
:1049D000BDCBF07A8807703C075C143326A6913C67
:1049E000C4EB98999999C9BF711623FEC671BCBFD3
:1049F0006D9A74AFF2B0B3BF9AFDDE522DDEADBF3B
:104A00002F6C6A2C44B4A2BF0D5555555555D53F52
:104A1000FF8300922449C23F6E204CC5CD45B73F6D
:104A2000513DD0A0660DB13FEB0D76244B7BA93FE5
:104A300011DA22E33AAD903F000000000000F03FA1
:104A4000000000000000F83F00000000000000002F
:104A50000000004003B8E23F00000000000000003A
:104A600006D0CF43EBFD4C3E033333333333E33FC8
:104A7000FFAB6FDBB66DDB3F4D268F515555D53FF4
:104A800001411DA96074D13F65DBC9934A86CD3FC2
:104A9000EF4E454A287ECA3F3E5555555555C53FB0
:104AA00093BDBE166CC166BF2CDE25AF6A56113FA2
:104AB000F16BD2C541BDBBBED0A4BE726937663EA4
:104AC0004C5555555555A53F7751C1166CC156BF2C
:104AD0009015CB19A001FA3EAD529C804F7E92BE3C
:104AE000C4B1B4BD9EEE213ED43888BEE9FAA8BD5B
:104AF000000000000000000000004054FB21F93FCE
:104B00003163621A61B4D03D0000601A61B4D03DD7
:104B10007370032E8A19A33B0000002E8A19A33B51
:104B2000C14920259A837B39000000000000000065
:104B30006E83F9A22915444ED15727FCC0DD34F508
:104B4000999562DB4190433CAB6351FE61C5BBDE8E
:104B50003A6E24B7E0D24D42EA2E49061C92D109A2
:104B60001CEB1DFE3EA729B1F53582E88444BB2E1F
:104B700026709CE9417E5FB439D69139F43953836C
:104B80008B5F849C3B28F9BDFF97F81F0F9805DECB
:104B90008B112FEF1F6D0A5ACF7E366DB709CB27C9
:104BA000663F464F2DEA5F9EC7BA27757BF1E5EB5E
:104BB000F739073DEA92528AB15FFB6B085D8D1FA2
:104BC000A6F810111111813FD561C119A0012ABFAA
:104BD0007DFEB157E31DC73EEB9C2B8AE6E55ABE2E
:104BE0007CD5CF5A3AD9E53D084C0008000000209A
:104BF0007800000028010008804C000878000020A0
:104C0000980A0000440100080000000000000000B5
:104C10000000000000000000000000000000000094
:104C2000000000000000000000000000E12E6542CE
:104C30000000000000000000000000000000000074
:104C40000000000000000000000000000000000064
:104C50000000000000000000000000000000000054
:104C60000000803F00000000000000000000803FC6
:104C700001000000100000000000000000127A0097
:04000005080000ED02
:00000001FF
